:020000040800F2
:1000000000800120FD0400084D0500084D05000892
:100010004D0500084D0500084D05000800000000D2
:100020000000000000000000000000004D05000876
:100030004D050008000000004D0500084D050008B2
:10004000000000004D0500084D0500084D050008A2
:100050004D0500084D0500084D0500084D05000838
:100060004D0500084D0500084D0500080000000082
:100070000000000000000000000000000000000080
:1000800000000000000000004D0500080000000016
:100090000000000000000000000000004D05000806
:1000A0004D0500084D0500084D0500084D050008E8
:1000B0004D0500084D0500084D0500084D050008D8
:1000C0004D0500084D0500084D0500084D050008C8
:1000D0004D0500084D0500084D0500080000000012
:1000E0004D0500084D0500084D0500080000000002
:1000F0000000000000000000000000000000000000
:10010000000000004D0500084D0500084D050008E1
:1001100000000000000000000000000000000000DF
:1001200000000000000000000000000000000000CF
:1001300000000000000000000000000000000000BF
:100140000000000000000000000000004D05000855
:100150000000000000000000000000004D05000845
:100160004D0500084D0500080000000000000000DB
:10017000000000000000000000000000000000007F
:10018000000000004D050008000000000000000015
:040190004D05000811
:1001940010B5054C237833B9044B13B10448AFF3BD
:1001A40000800123237010BD000000200000000027
:1001B400B406000808B5034B1BB103490348AFF369
:1001C400008008BD0000000004000020B406000800
:1001D40080B500AF164BD3F88830154A43F470034A
:1001E400C2F88830134B1B68124A43F001031360B2
:1001F400104B00229A600F4B1B680E4A23F0847345
:1002040023F4803313600B4B0B4A5A60094B1B6871
:10021400084A23F480231360064B0022DA6000F0BE
:100224000DF8034B4FF000629A6000BF80BD00BF21
:1002340000ED00E0003802401030002480B400AF2C
:10024400234B1B6C224A43F080531364214B1B68DD
:10025400204A43F4404313601D4B1D4A9B6893603E
:100264001B4B1B4A9B689360194B9B68184A43F4C9
:1002740080539360164B184A5A60154B1B68144AF6
:1002840043F08073136000BF114B1B6803F00073CD
:10029400002BF9D0114B40F202621A600C4B9B68A0
:1002A4000B4A23F003039360094B9B68084A43F00D
:1002B4000203936000BF064B9B6803F00C03082BFA
:1002C400F9D100BF00BFBD465DF8047B704700BF95
:1002D400003802400070004010540108003C024005
:1002E40080B485B000AF78600023FB60094B9B6845
:1002F400FB60FB6823F0F003FB60FA687B68134340
:10030400FB60044AFB68936000BF1437BD465DF888
:10031400047B70470038024080B483B000AF78603B
:100324000B46FB70FB78002B06D00A4B1A6B09496D
:100334007B6813430B6306E0064B1A6B7B68DB4355
:10034400044913400B6300BF0C37BD465DF8047BC2
:10035400704700BF0038024080B500AF8020FFF72F
:10036400BFFF00BF80BD000080B483B000AF002396
:100374007B6002E07B6801337B607B68044A9342C4
:10038400F8D900BF00BF0C37BD465DF8047B704749
:100394008FD0030080B582B000AF01210220FFF7A7
:1003A400BBFF4FF400533B6001233B7102237B717D
:1003B4000023BB710223FB713B461946034800F03E
:1003C400C4F800BF0837BD4680BD00BF000402402A
:1003D40080B582B000AF01210220FFF79DFF082302
:1003E4003B6000233B7102237B710123FB713B467D
:1003F4001946034800F0A9F800BF0837BD4680BD80
:100404000004024080B483B000AF78600B467B8068
:1004140013467B707B78012B02D17B687A881A8320
:100424007B78002B02D17B687A885A8300BF0C3713
:10043400BD465DF8047B704780B485B000AF78603A
:100444000B467B800023FB737B681A697B8813400F
:10045400002B02D00123FB7301E00023FB73FB7B21
:1004640018461437BD465DF8047B704780B582B0EA
:1004740000AF0023FB71FFF76FFFFFF78BFFFFF760
:10048400A7FF00224FF400511A48FFF7BBFF0821D1
:100494001848FFF7D1FF0346002BF8D1FFF764FF9C
:1004A40008211448FFF7C8FF0346002BEFD1FB795E
:1004B400002B0CBF01230023DBB2FB71FB79012B62
:1004C40006D101224FF400510A48FFF79BFF05E0D3
:1004D40000224FF400510748FFF794FF00BF0821A2
:1004E4000448FFF7A9FF0346002BF8D0FFF73CFFB1
:1004F400CDE700BF000402400D488546FFF768FEC3
:100504000C480D490D4A002302E0D458C45004336A
:10051400C4188C42F9D30A4A0A4C002301E0136040
:100524000432A242FBD300F09FF8FFF79FFFFEE7DF
:10053400008001200000002000000020D4060008F4
:10054400000000201C000020FEE780B487B000AF4C
:100554007860396000237B6100233B610023FB60EA
:1005640000237B6176E001227B6902FA03F33B619D
:100574003B681B683A691340FB60FA683B699A421E
:1005840065D17B681A687B695B00032101FA03F378
:10059400DB431A407B681A607B681A683B681B79E6
:1005A40019467B695B0001FA03F31A437B681A60FE
:1005B4003B681B79012B03D03B681B79022B2ED19E
:1005C4007B689A687B695B00032101FA03F3DB43D0
:1005D4001A407B689A607B689A683B685B79194625
:1005E4007B695B0001FA03F31A437B689A607B68BA
:1005F4005A687B699BB2194601238B40DB431A403E
:100604007B685A607B685B683A68927911467A69BC
:1006140092B201FA02F292B21A437B685A607B6882
:10062400DA687B699BB25B00032101FA03F3DB43C5
:100634001A407B68DA607B68DA683B68DB791946C4
:100644007B695B0001FA03F31A437B68DA607B6918
:1006540001337B617B690F2B85D900BF1C37BD46F5
:100664005DF8047B7047000070B50D4D0D4C641BA4
:10067400A4100026A64209D10B4D0C4C00F018F82A
:10068400641BA4100026A64205D170BD55F8043B96
:1006940098470136EEE755F8043B98470136F2E7F0
:1006A400CC060008CC060008CC060008D0060008DA
:1006B400F8B500BFF8BC08BC9E467047F8B500BF4B
:0806C400F8BC08BC9E4670471B
:0406CC00B901000868
:0406D0009501000888
:04000005080004FDEE
:00000001FF
