:020000040800F2
:100000000080012071070008C1070008C10700082F
:10001000C1070008C1070008C10700080000000070
:10002000000000000000000000000000C107000800
:10003000C107000800000000C1070008C107000850
:1000400000000000C1070008C1070008C107000840
:10005000C1070008C1070008C1070008C107000860
:10006000C1070008C1070008C10700080000000020
:100070000000000000000000000000000000000080
:100080000000000000000000C107000800000000A0
:10009000000000000000000000000000C107000890
:1000A000C1070008C1070008C1070008C107000810
:1000B000C1070008C1070008C1070008C107000800
:1000C000C1070008C1070008C1070008850600082D
:1000D000C1070008C1070008C107000800000000B0
:1000E000C1070008C1070008C107000800000000A0
:1000F0000000000000000000000000000000000000
:1001000000000000C1070008C1070008C10700087F
:1001100000000000000000000000000000000000DF
:1001200000000000000000000000000000000000CF
:1001300000000000000000000000000000000000BF
:10014000000000000000000000000000C1070008DF
:10015000000000000000000000000000C1070008CF
:10016000C1070008C10700080000000000000000EF
:10017000000000000000000000000000000000007F
:1001800000000000C107000800000000000000009F
:04019000C10700089B
:1001940010B5054C237833B9044B13B10448AFF3BD
:1001A40000800123237010BD000000200000000027
:1001B400340D000808B5034B1BB103490348AFF3E2
:1001C400008008BD0000000004000020340D000879
:1001D40080B500AF164BD3F88830154A43F470034A
:1001E400C2F88830134B1B68124A43F001031360B2
:1001F400104B00229A600F4B1B680E4A23F0847345
:1002040023F4803313600B4B0B4A5A60094B1B6871
:10021400084A23F480231360064B0022DA6000F0BE
:100224000DF8034B4FF000629A6000BF80BD00BF21
:1002340000ED00E0003802401030002480B400AF2C
:10024400234B1B6C224A43F080531364214B1B68DD
:10025400204A43F4404313601D4B1D4A9B6893603E
:100264001B4B1B4A9B689360194B9B68184A43F4C9
:1002740080539360164B184A5A60154B1B68144AF6
:1002840043F08073136000BF114B1B6803F00073CD
:10029400002BF9D0114B40F202621A600C4B9B68A0
:1002A4000B4A23F003039360094B9B68084A43F00D
:1002B4000203936000BF064B9B6803F00C03082BFA
:1002C400F9D100BF00BFBD465DF8047B704700BF95
:1002D400003802400070004010540108003C024005
:1002E40080B485B000AF78600023FB60094B9B6845
:1002F400FB60FB6823F0F003FB60FA687B68134340
:10030400FB60044AFB68936000BF1437BD465DF888
:10031400047B70470038024080B483B000AF78603B
:100324000B46FB70FB78002B06D00A4B1A6B09496D
:100334007B6813430B6306E0064B1A6B7B68DB4355
:10034400044913400B6300BF0C37BD465DF8047BC2
:10035400704700BF0038024080B483B000AF7860BB
:100364000B46FB70FB78002B06D00A4B1A6C09492C
:100374007B6813430B6406E0064B1A6C7B68DB4313
:10038400044913400B6400BF0C37BD465DF8047B81
:10039400704700BF0038024080B483B000AF78607B
:1003A4000B46FB70FB78002B06D00A4B5A6C0949AC
:1003B4007B6813434B6406E0064B5A6C7B68DB4353
:1003C400044913404B6400BF0C37BD465DF8047B01
:1003D400704700BF0038024080B500AF8020FFF7AF
:1003E4007FFF00BF80BD80B485B000AF786000237C
:1003F400FB6002E0FB680133FB607B684FF47A72B8
:1004040002FB03F2FB689A42F4D800BF00BF143722
:10041400BD465DF8047B704780B582B000AF012112
:100424000120FFF779FF20233B6001233B71022366
:100434007B710023BB710223FB713B4619460348C1
:1004440000F020FA00BF0837BD4680BD000002401E
:1004540080B582B000AF01210420FFF75DFF4FF4A7
:1004640000533B6000233B7102237B710123FB712A
:100474003B461946034800F005FA00BF0837BD465D
:1004840080BD00BF0008024080B588B000AF0121E4
:100494000220FFF741FF01214FF48040FFF75CFF8A
:1004A40002233B7702237B770023BB770123FB776F
:1004B4004FF46043BB6107F118031946204800F06C
:1004C400E1F905220D211E4800F0A2FA05220E21B1
:1004D4001B4800F09DFA05220F21194800F098FAF4
:1004E40001233B774FF48053BB6107F1180319468E
:1004F400134800F0C7F94FF48051114800F06AFA2C
:100504000023BB804FF48273FB8000233B810023D4
:100514007B810023BB814FF40073FB8108233B8262
:1005240080237B823B1D1946064800F0BAFA01215C
:10053400044800F0FAFA00BF2037BD4680BD00BF72
:10054400000402400038004080B588B000AF0121AB
:100554000120FFF7E1FE01210220FFF7DDFE01216A
:100564004FF48050FFF718FF02233B770023BB773B
:1005740002237B770023FB77C023BB6107F11803B9
:1005840019462A4800F07EF90823BB6107F11803D5
:100594001946274800F076F905220321244800F083
:1005A40037FA05220621214800F032FA05220721F4
:1005B4001E4800F02DFA00233B770123FB7710231C
:1005C400BB6107F118031946184800F05BF90023D2
:1005D400BB800023FB8000233B8100237B8100231D
:1005E400BB814FF40073FB8108233B8280237B8211
:1005F4003B1D19460F4800F054FA23233B70002397
:100604007B700023BB700123FB703B46184600F04F
:10061400D7F801226021074800F0C3FA01210548F8
:1006240000F083FA00BF2037BD4680BD00000240C1
:10063400000402400030014080B582B000AF786011
:100644000B46FB704FF480510C4800F0D2F9FB7854
:100654009BB21946786800F095FA00BF802178684B
:1006640000F0D0FA0346012BF8D04FF48051034830
:1006740000F0B0F900BF0837BD4680BD0004024059
:1006840080B500AF6021094800F0D8FA0346012B79
:1006940006D1064800F069FA0346DAB2044B1A7030
:1006A4006021024800F005FB00BF80BD003001401E
:1006B4001C00002080B582B000AFFFF78DFEFFF76D
:1006C400C7FEFFF7A9FEFFF7DFFEFFF73DFF20217E
:1006D400224800F08EF94FF40051214800F060F9EF
:1006E4000346002B17D11420FFF77DFE4FF4005171
:1006F4001B4800F055F90346002B0CD1B1211948D1
:10070400FFF79AFF00BF4FF40051154800F048F975
:100714000346002BF7D0144B1B78DBB2B12BDAD194
:1007240000237B6012E020210C4800F053F94FF4C1
:100734009670FFF758FE2021084800F05AF94FF44C
:100744009670FFF750FE7B6801337B607B68042B57
:10075400E9DD054B00221A70BDE700BF000002402E
:1007640000080240003800401C0000200D48854667
:10077400FFF72EFD0C480D490D4A002302E0D45822
:10078400C4500433C4188C42F9D30A4A0A4C0023D7
:1007940001E013600432A242FBD300F0A5FAFFF794
:1007A40089FFFEE7008001200000002000000020F7
:1007B400540D00080000002020000020FEE7000087
:1007C40080B485B000AF78600023FB730023BB7353
:1007D4000F237B737B68DB78002B39D0274BDB68D6
:1007E400DB431B0ADBB203F00703FB73FB7BC3F1A0
:1007F4000403BB737A7BFB7B42FA03F37B737B6852
:100804005B781A46BB7B02FA03F3FB737B689A7826
:100814007B7B1340DAB2FB7B1343FB73FB7B1B0133
:10082400FB73174A7B681B781344FA7B83F8002315
:100834007B681B7803F01F0311497A681278520908
:10084400D2B21046012202FA03F341F820300FE03D
:100854007B681B7803F01F0309497A6812785209F0
:10086400D2B2104601229A4000F1200341F823201D
:1008740000BF1437BD465DF8047B704700ED00E00F
:1008840000E100E080B487B000AF786039600023F5
:100894007B6100233B610023FB6000237B6176E0E6
:1008A40001227B6902FA03F33B613B681B683A69E6
:1008B4001340FB60FA683B699A4265D17B681A6809
:1008C4007B695B00032101FA03F3DB431A407B6875
:1008D4001A607B681A683B681B7919467B695B0060
:1008E40001FA03F31A437B681A603B681B79012BF6
:1008F40003D03B681B79022B2ED17B689A687B69F5
:100904005B00032101FA03F3DB431A407B689A601E
:100914007B689A683B685B7919467B695B0001FADE
:1009240003F31A437B689A607B685A687B699BB2BD
:10093400194601238B40DB431A407B685A607B686D
:100944005B683A68927911467A6992B201FA02F2C6
:1009540092B21A437B685A607B68DA687B699BB2FF
:100964005B00032101FA03F3DB431A407B68DA607E
:100974007B68DA683B68DB7919467B695B0001FABE
:1009840003F31A437B68DA607B6901337B617B691B
:100994000F2B85D900BF1C37BD465DF8047B70471B
:1009A40080B485B000AF78600B467B800023FB7376
:1009B4007B681A697B881340002B02D00123FB73E8
:1009C40001E00023FB73FB7B18461437BD465DF83A
:1009D400047B704780B483B000AF78600B467B80A3
:1009E4007B687A881A8300BF0C37BD465DF8047BA8
:1009F400704780B483B000AF78600B467B807B681F
:100A04007A885A8300BF0C37BD465DF8047B704773
:100A140080B485B000AF78600B467B8013467B7052
:100A24000023FB600023BB607A787B8803F0070314
:100A34009B0002FA03F3FB607B88DB089BB21A4637
:100A44007B68083253F822207B8803F007039B005D
:100A54000F2101FA03F3DB437988C90889B20846F8
:100A640002EA03017B6800F1080243F822107B8844
:100A7400DB089BB21A467B68083253F82230FA68C6
:100A84001343BB607B88DB089BB21A467B68083241
:100A9400B96843F8221000BF1437BD465DF8047BE3
:100AA400704780B485B000AF786039600023FB8163
:100AB4007B681B88FB81FB8903F44153FB813B6802
:100AC4001A883B685B8813439AB23B689B8813433C
:100AD4009AB23B68DB8813439AB23B681B89134381
:100AE4009AB23B685B8913439AB23B689B89134370
:100AF4009AB23B68DB8913439AB2FB891343FB81A7
:100B04007B68FA891A807B689B8B9BB223F4006311
:100B14009AB27B689A833B681A8A7B681A8200BF00
:100B24001437BD465DF8047B704780B483B000AFD2
:100B340078600B46FB70FB78002B08D07B681B8821
:100B44009BB243F040039AB27B681A8007E07B684B
:100B54001B889BB223F040039AB27B681A8000BFC3
:100B64000C37BD465DF8047B704780B483B000AF9A
:100B740078607B689B899BB218460C37BD465DF84C
:100B8400047B704780B483B000AF78600B467B80F1
:100B94007B687A889A8100BF0C37BD465DF8047B78
:100BA400704780B485B000AF78600B46FB70134685
:100BB400BB700023FB810023BB81FB781B09DBB2E4
:100BC400FB81FB89012202FA03F3BB81BB78002B72
:100BD40008D07B689B889AB2BB8913439AB27B681E
:100BE4009A8009E07B689B889AB2BB89DB439BB2FD
:100BF40013409AB27B689A8000BF1437BD465DF8F3
:100C0400047B704780B485B000AF78600B467B806E
:100C14000023FB737B681B899AB27B8813409BB2C9
:100C2400002B02D00123FB7301E00023FB73FB7B49
:100C340018461437BD465DF8047B704780B485B010
:100C440000AF78600B46FB700023FB730023BB816D
:100C540000237B8100233B81FB7803F00F030122F7
:100C640002FA03F3BB81FB781B09DBB27B817B892E
:100C7400012202FA03F37B817B689B889AB27B8909
:100C840013403B817B681B899AB2BB8913409BB29A
:100C9400002B05D03B89002B02D00123FB7301E01C
:100CA4000023FB73FB7B18461437BD465DF8047BB9
:100CB400704780B485B000AF78600B46FB700023AA
:100CC400FB81FB7803F00F03012202FA03F3FB819B
:100CD400FB89DB439AB27B681A8100BF1437BD4697
:100CE4005DF8047B7047000070B50D4D0D4C641B1E
:100CF400A4100026A64209D10B4D0C4C00F018F8A4
:100D0400641BA4100026A64205D170BD55F8043B0F
:100D140098470136EEE755F8043B98470136F2E769
:100D24004C0D00084C0D00084C0D0008500D000837
:100D3400F8B500BFF8BC08BC9E467047F8B500BFC4
:080D4400F8BC08BC9E46704794
:040D4C00B9010008E1
:040D50009501000801
:040000050800077177
:00000001FF
