:020000040800F2
:100000000080012001050008510500085105000885
:1000100051050008510500085105000800000000C6
:100020000000000000000000000000005105000872
:1000300051050008000000005105000851050008A6
:100040000000000051050008510500085105000896
:100050005105000851050008510500085105000828
:100060005105000891040008510500080000000037
:100070000000000000000000000000000000000080
:100080000000000000000000510500080000000012
:100090000000000000000000000000005105000802
:1000A00051050008510500085105000851050008D8
:1000B00051050008510500085105000851050008C8
:1000C00051050008510500085105000851050008B8
:1000D0005105000851050008510500080000000006
:1000E00051050008510500085105000800000000F6
:1000F0000000000000000000000000000000000000
:1001000000000000510500085105000851050008D5
:1001100000000000000000000000000000000000DF
:1001200000000000000000000000000000000000CF
:1001300000000000000000000000000000000000BF
:100140000000000000000000000000005105000851
:100150000000000000000000000000005105000841
:1001600051050008510500080000000000000000D3
:10017000000000000000000000000000000000007F
:100180000000000051050008000000000000000011
:04019000510500080D
:1001940010B5054C237833B9044B13B10448AFF3BD
:1001A40000800123237010BD000000200000000027
:1001B4007409000808B5034B1BB103490348AFF3A6
:1001C400008008BD0000000004000020740900083D
:1001D40080B500AF164BD3F88830154A43F470034A
:1001E400C2F88830134B1B68124A43F001031360B2
:1001F400104B00229A600F4B1B680E4A23F0847345
:1002040023F4803313600B4B0B4A5A60094B1B6871
:10021400084A23F480231360064B0022DA6000F0BE
:100224000DF8034B4FF000629A6000BF80BD00BF21
:1002340000ED00E0003802401030002480B400AF2C
:10024400234B1B6C224A43F080531364214B1B68DD
:10025400204A43F4404313601D4B1D4A9B6893603E
:100264001B4B1B4A9B689360194B9B68184A43F4C9
:1002740080539360164B184A5A60154B1B68144AF6
:1002840043F08073136000BF114B1B6803F00073CD
:10029400002BF9D0114B40F202621A600C4B9B68A0
:1002A4000B4A23F003039360094B9B68084A43F00D
:1002B4000203936000BF064B9B6803F00C03082BFA
:1002C400F9D100BF00BFBD465DF8047B704700BF95
:1002D400003802400070004010540108003C024005
:1002E40080B485B000AF78600023FB60094B9B6845
:1002F400FB60FB6823F0F003FB60FA687B68134340
:10030400FB60044AFB68936000BF1437BD465DF888
:10031400047B70470038024080B483B000AF78603B
:100324000B46FB70FB78002B06D00A4B1A6B09496D
:100334007B6813430B6306E0064B1A6B7B68DB4355
:10034400044913400B6300BF0C37BD465DF8047BC2
:10035400704700BF0038024080B483B000AF7860BB
:100364000B46FB70FB78002B06D00A4B5A6C0949EC
:100374007B6813434B6406E0064B5A6C7B68DB4393
:10038400044913404B6400BF0C37BD465DF8047B41
:10039400704700BF0038024080B500AF8020FFF7EF
:1003A4009FFF00BF80BD80B485B000AF786000239C
:1003B400FB6002E0FB680133FB607B684FF47A72F8
:1003C40002FB03F2FB689A42F4D800BF00BF143763
:1003D400BD465DF8047B704780B582B000AF012153
:1003E4000120FFF799FF01233B710023BB71012317
:1003F4003B600223FB7102237B713B461946034891
:1004040000F008F900BF0837BD4680BD0000024077
:1004140080B586B000AF01210220FFF77DFF0023E5
:100424003B7508233B610123FB7502237B7507F1B0
:1004340010031946144800F0EDF801214FF48040F0
:10044400FFF78AFF0321012000F02CFA0823BB6088
:100454000123BB7300233B730C237B7307F1080355
:10046400184600F083F909233B710123FB71002333
:100474007B710023BB713B1D184600F069F800BF77
:100484001837BD4680BD00BF0004024080B500AFF0
:10049400082000F0DDF90346002B05D0034B0122B0
:1004A4001A70082000F0EEF900BF80BD1C00002087
:1004B40080B500AFFFF770FFFFF78EFFFFF7A8FFCF
:1004C40001210C4800F043F90B4B1B78DBB2012BE4
:1004D400FAD10121074800F02BF94FF4FA70FFF725
:1004E40062FF0121034800F032F9034B00221A7025
:1004F400EAE700BF000002401C0000200D488546CA
:10050400FFF766FE0C480D490D4A002302E0D4585B
:10051400C4500433C4188C42F9D30A4A0A4C002349
:1005240001E013600432A242FBD300F0FDF9FFF7AF
:10053400BFFFFEE700800120000000200000002033
:10054400940900080000002020000020FEE70000BD
:1005540080B485B000AF78600023FB730023BB73C5
:100564000F237B737B68DB78002B39D0274BDB6848
:10057400DB431B0ADBB203F00703FB73FB7BC3F112
:100584000403BB737A7BFB7B42FA03F37B737B68C4
:100594005B781A46BB7B02FA03F3FB737B689A7899
:1005A4007B7B1340DAB2FB7B1343FB73FB7B1B01A6
:1005B400FB73174A7B681B781344FA7B83F8002388
:1005C4007B681B7803F01F0311497A68127852097B
:1005D400D2B21046012202FA03F341F820300FE0B0
:1005E4007B681B7803F01F0309497A681278520963
:1005F400D2B2104601229A4000F1200341F8232090
:1006040000BF1437BD465DF8047B704700ED00E081
:1006140000E100E080B487B000AF78603960002367
:100624007B6100233B610023FB6000237B6176E058
:1006340001227B6902FA03F33B613B681B683A6958
:100644001340FB60FA683B699A4265D17B681A687B
:100654007B695B00032101FA03F3DB431A407B68E7
:100664001A607B681A683B681B7919467B695B00D2
:1006740001FA03F31A437B681A603B681B79012B68
:1006840003D03B681B79022B2ED17B689A687B6967
:100694005B00032101FA03F3DB431A407B689A6091
:1006A4007B689A683B685B7919467B695B0001FA51
:1006B40003F31A437B689A607B685A687B699BB230
:1006C400194601238B40DB431A407B685A607B68E0
:1006D4005B683A68927911467A6992B201FA02F239
:1006E40092B21A437B685A607B68DA687B699BB272
:1006F4005B00032101FA03F3DB431A407B68DA60F1
:100704007B68DA683B68DB7919467B695B0001FA30
:1007140003F31A437B68DA607B6901337B617B698D
:100724000F2B85D900BF1C37BD465DF8047B70478D
:1007340080B483B000AF78600B467B807B687A8896
:100744001A8300BF0C37BD465DF8047B704780B444
:1007540083B000AF78600B467B807B687A885A83CD
:1007640000BF0C37BD465DF8047B704780B485B08C
:1007740000AF78600023FB60344BFB607B689B799F
:10078400002B4FD0314B1A687B681B68DB432F4921
:1007940013400B602D4B5A687B681B68DB432B4965
:1007A40013404B607B681B791A46FB681344FB605B
:1007B400FB6819687B681A68FB680A431A60234B54
:1007C4009A687B681B68DB43204913408B601F4B8E
:1007D400DA687B681B68DB431C491340CB607B6889
:1007E4005B79102B0ED1194B9A687B681B681749EB
:1007F40013438B60154BDA687B681B6813491343FA
:10080400CB601DE0114BFB607B685B791A46FB688B
:100814001344FB60FB6819687B681A68FB680A4329
:100824001A600DE07B681B791A46FB681344FB6071
:10083400FB6819687B681B68DA43FB680A401A6026
:1008440000BF1437BD465DF8047B7047003C01408F
:1008540080B485B000AF78600023FB73084B5A69FD
:100864007B681340002B02D00123FB7301E00023BB
:10087400FB73FB7B18461437BD465DF8047B704759
:10088400003C014080B483B000AF7860044A7B68C8
:10089400536100BF0C37BD465DF8047B704700BF51
:1008A400003C014080B485B000AF03460A46FB71AA
:1008B4001346BB710023FB60BB7903F003039B0069
:1008C4000F2202FA03F3FB60164ABB799B08DBB2E2
:1008D400023352F82320FB68DB431248B9798908B4
:1008E400C9B21A408B1C40F823200E4ABB799B08DE
:1008F400DBB2023352F82320F979BB7903F0030306
:100904009B0001FA03F30748B9798908C9B21A436D
:100914008B1C40F8232000BF1437BD465DF8047BD0
:10092400704700BF0038014070B50D4D0D4C641B7D
:10093400A4100026A64209D10B4D0C4C00F018F867
:10094400641BA4100026A64205D170BD55F8043BD3
:1009540098470136EEE755F8043B98470136F2E72D
:100964008C0900088C0900088C090008900900080B
:10097400F8B500BFF8BC08BC9E467047F8B500BF88
:08098400F8BC08BC9E46704758
:04098C00B9010008A5
:0409900095010008C5
:0400000508000501E9
:00000001FF
