:020000040800F2
:10000000008001204D0400089D0400089D040008A4
:100010009D0400089D0400089D04000800000000E5
:100020000000000000000000000000009D04000827
:100030009D040008000000009D0400089D040008C5
:10004000000000009D0400089D0400089D040008B5
:100050009D0400089D0400089D0400089D040008FC
:100060009D0400089D0400089D0400080000000095
:100070000000000000000000000000000000000080
:1000800000000000000000009D04000800000000C7
:100090000000000000000000000000009D040008B7
:1000A0009D0400089D0400089D0400089D040008AC
:1000B0009D0400089D0400089D0400089D0400089C
:1000C0009D0400089D0400089D0400089D0400088C
:1000D0009D0400089D0400089D0400080000000025
:1000E0009D0400089D0400089D0400080000000015
:1000F0000000000000000000000000000000000000
:10010000000000009D0400089D0400089D040008F4
:1001100000000000000000000000000000000000DF
:1001200000000000000000000000000000000000CF
:1001300000000000000000000000000000000000BF
:100140000000000000000000000000009D04000806
:100150000000000000000000000000009D040008F6
:100160009D0400089D04000800000000000000003D
:10017000000000000000000000000000000000007F
:10018000000000009D0400080000000000000000C6
:040190009D040008C2
:1001940010B5054C237833B9044B13B10448AFF3BD
:1001A40000800123237010BD000000200000000027
:1001B4007406000808B5034B1BB103490348AFF3A9
:1001C400008008BD00000000040000207406000840
:1001D40080B500AF164BD3F88830154A43F470034A
:1001E400C2F88830134B1B68124A43F001031360B2
:1001F400104B00229A600F4B1B680E4A23F0847345
:1002040023F4803313600B4B0B4A5A60094B1B6871
:10021400084A23F480231360064B0022DA6000F0BE
:100224000DF8034B4FF000629A6000BF80BD00BF21
:1002340000ED00E0003802401030002480B400AF2C
:10024400234B1B6C224A43F080531364214B1B68DD
:10025400204A43F4404313601D4B1D4A9B6893603E
:100264001B4B1B4A9B689360194B9B68184A43F4C9
:1002740080539360164B184A5A60154B1B68144AF6
:1002840043F08073136000BF114B1B6803F00073CD
:10029400002BF9D0114B40F202621A600C4B9B68A0
:1002A4000B4A23F003039360094B9B68084A43F00D
:1002B4000203936000BF064B9B6803F00C03082BFA
:1002C400F9D100BF00BFBD465DF8047B704700BF95
:1002D400003802400070004010540108003C024005
:1002E40080B485B000AF78600023FB60094B9B6845
:1002F400FB60FB6823F0F003FB60FA687B68134340
:10030400FB60044AFB68936000BF1437BD465DF888
:10031400047B70470038024080B483B000AF78603B
:100324000B46FB70FB78002B06D00A4B1A6B09496D
:100334007B6813430B6306E0064B1A6B7B68DB4355
:10034400044913400B6300BF0C37BD465DF8047BC2
:10035400704700BF0038024080B500AF8020FFF72F
:10036400BFFF00BF80BD000080B582B000AF012197
:100374000120FFF7D1FF01210220FFF7CDFF01216A
:100384000420FFF7C9FF08233B6000233B710223CD
:100394007B710123FB713B4619460E4800F07DF842
:1003A4004FF400633B6001233B710023BB710223C4
:1003B400FB713B461946084800F06FF84FF4007390
:1003C4003B603B461946054800F067F800BF083714
:1003D400BD4680BD00040240000002400008024007
:1003E40080B500AFFFF7B8FFFFF7BEFF4FF4006121
:1003F400124800F009F94FF40071114800F004F9B3
:100404000821104800F0D7F80346002B0AD14FF416
:1004140000610A4800F0E9F84FF40071084800F060
:10042400E4F8EDE74FF40061044800F0EDF84FF410
:100434000071034800F0E8F8E2E700BF0000024062
:1004440000080240000402400D488546FFF7C0FE44
:100454000C480D490D4A002302E0D458C45004331B
:10046400C4188C42F9D30A4A0A4C002301E01360F1
:100474000432A242FBD300F0D7F8FFF7B1FFFEE746
:1004840000800120000000200000002094060008E5
:10049400000000201C000020FEE780B487B000AFFD
:1004A4007860396000237B6100233B610023FB609B
:1004B40000237B6176E001227B6902FA03F33B614E
:1004C4003B681B683A691340FB60FA683B699A42CF
:1004D40065D17B681A687B695B00032101FA03F329
:1004E400DB431A407B681A607B681A683B681B7997
:1004F40019467B695B0001FA03F31A437B681A60AF
:100504003B681B79012B03D03B681B79022B2ED14E
:100514007B689A687B695B00032101FA03F3DB4380
:100524001A407B689A607B689A683B685B791946D5
:100534007B695B0001FA03F31A437B689A607B686A
:100544005A687B699BB2194601238B40DB431A40EE
:100554007B685A607B685B683A68927911467A696D
:1005640092B201FA02F292B21A437B685A607B6833
:10057400DA687B699BB25B00032101FA03F3DB4376
:100584001A407B68DA607B68DA683B68DB79194675
:100594007B695B0001FA03F31A437B68DA607B69C9
:1005A40001337B617B690F2B85D900BF1C37BD46A6
:1005B4005DF8047B704780B485B000AF78600B466B
:1005C4007B800023FB737B681A697B881340002BB4
:1005D40002D00123FB7301E00023FB73FB7B18466D
:1005E4001437BD465DF8047B704780B483B000AF18
:1005F40078600B467B807B687A881A8300BF0C374F
:10060400BD465DF8047B704780B483B000AF78606A
:100614000B467B807B687A885A8300BF0C37BD46C3
:100624005DF8047B7047000070B50D4D0D4C641BE4
:10063400A4100026A64209D10B4D0C4C00F018F86A
:10064400641BA4100026A64205D170BD55F8043BD6
:1006540098470136EEE755F8043B98470136F2E730
:100664008C0600088C0600088C060008900600081A
:10067400F8B500BFF8BC08BC9E467047F8B500BF8B
:08068400F8BC08BC9E4670475B
:04068C00B9010008A8
:0406900095010008C8
:040000050800044D9E
:00000001FF
